:02000000B02826
:0E0006008312031321088A00200882000800DC
:1000140083120313FB01FA01F9018030F800F10C9B
:10002400F00C031C1E287408F90775080318750FD3
:10003400FA070318FB0A0310F01F26287408FA07AE
:1000440075080318750FFB07FB0CFA0CF90CF80C78
:10005400031C11287B08F3007A08F2007908F100E8
:060064007808F00008001E
:10006A00831603130711831212150C309704080024
:10007A00831603131208013EF000F1010318F10A76
:10008A0083122308F400F5010A200630F2007008F2
:10009A00F4007108F500720803195828F50CF40CDD
:1000AA00F513FF3E51280430F1007408F00071087E
:1000BA0003196328F00D7010FF3E5D28303070057B
:1000CA00F3007408F0007508F100F10CF00CF1135C
:1000DA00F10CF00CF113700895000F3097057308B6
:0400EA00970408006F
:0C00EE00831203139501171297120800EB
:1000FA0083120313F101F20180307206F00080309E
:10010A0024067002031D8B28230871020318A328F2
:10011A00F301F40180307406F0008030033A700273
:10012A00031D9928E830730203189F28F30A03195C
:0E013A00F40A8F28F10A0319F20A812808003E
:1001480003208A110A128000840AA00A0319A10A4E
:08015800F003031DA4280800B8
:10016000B43083120313A200863083169F00FF3041
:10017000880087018601FF308500831212109210DB
:10018000F93083169200772035202208A3003D2005
:1001900005182029851C2029081CE228081EE228B1
:1001A0000716871207178713061086100615861183
:1001B000061286160613861307100530A3000030BA
:1001C000A4007D20881DF828881CF82807128716AF
:1001D0000713871706148610061186150612861255
:1001E0000613861307100530A3000030A4007D20FD
:1001F000081F0C2906108610061186150612861295
:100200000617861307100530A3000030A4007D20D8
:100210000712871207138713881F202906108610DC
:10022000061186110612861606138613071405306A
:10023000A3000030A4007D20071287120713871344
:100240000518382985183829081C382907168712F7
:1002500007178713061086100615861106128612D8
:100260000613861307100530A3000030A4007D207C
:10027000051C5029851C5029081F5029061486107A
:10028000061186150612861206178613071005300A
:10029000A3000030A4007D200712871607138717DC
:0402A000C8285129F0
:02400E004A2F37
:00000001FF
