:020000003D2899
:0E0006008312031321088A00200882000800DC
:1000140083120313F101F20180307206F000803084
:1000240023067002031D18282208710203183028C1
:10003400F301F40180307406F0008030033A70025A
:10004400031D2628E830730203182C28F30A031929
:0E005400F40A1C28F10A0319F20A0E2808000B
:1000620003208A110A128000840AA00A0319A10A35
:08007200F003031D3128080012
:10007A00FF308316031388008701860185018312E6
:10008A00081C5428881C5428013086000430870034
:10009A00043085000530A2000030A3000A20081CA5
:1000AA0063288818632804308600013087000130ED
:1000BA0085000530A2000030A3000A2044286428E5
:02400E004A2F37
:00000001FF
