:02000000B02826
:0E0006008312031321088A00200882000800DC
:1000140083120313FB01FA01F9018030F800F10C9B
:10002400F00C031C1E287408F90775080318750FD3
:10003400FA070318FB0A0310F01F26287408FA07AE
:1000440075080318750FFB07FB0CFA0CF90CF80C78
:10005400031C11287B08F3007A08F2007908F100E8
:060064007808F00008001E
:10006A00831603130711831212150C309704080024
:10007A00831603131208013EF000F1010318F10A76
:10008A0083122308F400F5010A200630F2007008F2
:10009A00F4007108F500720803195828F50CF40CDD
:1000AA00F513FF3E51280430F1007408F00071087E
:1000BA0003196328F00D7010FF3E5D28303070057B
:1000CA00F3007408F0007508F100F10CF00CF1135C
:1000DA00F10CF00CF113700895000F3097057308B6
:0400EA00970408006F
:0C00EE00831203139501171297120800EB
:1000FA0083120313F101F20180307206F00080309E
:10010A0024067002031D8B28230871020318A328F2
:10011A00F301F40180307406F0008030033A700273
:10012A00031D9928E830730203189F28F30A03195C
:0E013A00F40A8F28F10A0319F20A812808003E
:1001480003208A110A128000840AA00A0319A10A4E
:08015800F003031DA4280800B8
:10016000B43083120313A200FF3083168800870186
:1001700086018501831212109210F93083169200C5
:10018000772035202208A3003D20081DC92807122A
:1001900087120819CD2807168712881DD128071342
:1001A00087138819D52807178713081CE728881C88
:1001B000E728061486100611861106128616061305
:1001C000861307140530A3000030A4007D20081C0E
:1001D000F9288818F92806108610061586150612C3
:1001E00086120617861307100530A3000030A400FE
:0601F0007D20C528FA285D
:02400E004A2F37
:00000001FF
